:100000008A11112801340134FE00030E83120313F8
:10001000C3000408C4000A08C5007F08C6008A118E
:10002000432B8A1113288313473084004F308A11E1
:10003000F7278A1183160313D10183172030840018
:1000400048308A11F7278A11831203138A1102207C
:100050008A11CF008A110320D00083018A15BF2F97
:1000600083120313B2003C30F0000030F100250889
:10007000F301F3072408F201F2078A1131248A11EF
:10008000710883120313A701A7077008A601A6072A
:100090003C30F7000030F8002508F301F30724088E
:1000A000F201F2071030F0000E30F1008A11312415
:1000B0008A117108FA01FA077008F901F9078A1123
:1000C000E6228A11780883120313A901A907770889
:1000D000A801A8071030F7000E30F8002508FA0133
:1000E000FA072408F901F9078A11E6228A1178082B
:1000F00083120313AB01AB077708AA01AA072708ED
:10010000F901F9072608F801F8070A30FA0000306B
:10011000FB002C308A1111228A1183120313AD08BF
:10012000031D9A282C08FD007D08AD003030FD002D
:100130007D08AC002908F901F9072808F801F8073B
:100140000A30FA000030FB002E308A1111228A1189
:1001500083120313AF08031DB5282E08FD007D0888
:10016000AF003030FD007D08AE002B08F901F90723
:100170002A08F801F8070A30FA000030FB00303096
:100180008A1111228A1183120313B108031DD0288A
:100190003008FD007D08B1003030FD007D08B00062
:1001A0003008FD00320884007D0883138000310888
:1001B000FD00320A84007D0880003A30FD003208DC
:1001C000023E84007D0880002E08FD003208033EB8
:1001D00084007D0880002F08FD003208043E840062
:1001E0007D0880003A30FD003208053E84007D081D
:1001F00080002C08FD003208063E84007D08800047
:100200002D08FD003208073E84007D08800032087A
:10021000083E84008001080083160313CE00CF013E
:10022000D0015008803AC90080304902031D1A29C4
:100230004E084F0203187629831603134F08C9008E
:1002400001300310C90DFF3E031D21290310490D84
:10025000013E203E840083178001840A80014F08FC
:10026000C9004F08CA0001300310CA0DFF3E031D2C
:10027000342903104A0D203E8400490880004E08AE
:10028000C900CA014908A0004A08A1004F08013E60
:10029000A20050080318013E003EA3008A119323D8
:1002A0008A11831603132008CB0001300310CB0DF5
:1002B000FF3E031D562903104B0D203ECC004F0876
:1002C000CD0001300310CD0DFF3E031D6229031048
:1002D0004D0D033E203E84004C0883178000013002
:1002E000CF070318D00A0030D00711292030831619
:1002F0000313C9004908D10051088400831700087E
:100300008A119925831603134608C90049088312E8
:100310000313D00083160313480883120313CA0182
:10032000CA0783160313470883120313C901C907B9
:10033000080083160313B0002908AE01AE07280891
:10034000AD01AD072B08A101A1072A08A001A00754
:100350002E08A301A3072D08A201A2078A117E245B
:100360008A11831603132108AE01AE072008AD01E0
:10037000AD070130AC002C08B0072E082D04031D7A
:10038000A22930088400831380010130B0022B08B9
:10039000A101A1072A08A001A0072908A301A3071A
:1003A0002808A201A2078A11FC248A1183160313CC
:1003B0002008AC002C08AF002B08A101A1072A08D7
:1003C000A001A0072908A301A3072808A201A207EA
:1003D0008A117E248A11831603132108A901A90713
:1003E0002008A801A8070A302F02031CFB290730A8
:1003F000AC002C08AF073030AC002C08AF072F083A
:10040000AC00300884002C08831380000130B00257
:1004100029082804031DC7290130AC002C08B007A7
:10042000080083120313A3007908A101A10778082B
:10043000A001A0077B08F101F1077A08F001F0079D
:100440002108F301F3072008F201F2078A11BE2404
:100450008A11710883120313A101A1077008A0017A
:10046000A0070130FC007C08A30721082004031D1D
:100470001A2A23088400831380010130A3027B0819
:10048000F101F1077A08F001F0077908F301F307A9
:100490007808F201F2078A1132258A117008FC00EF
:1004A0007C0883120313A2007B08F101F1077A088C
:1004B000F001F0077908F301F3077808F201F20779
:1004C0008A11BE248A117108F901F9077008F80130
:1004D000F8070A30831203132202031C732A073021
:1004E000FC007C08A2073030FC007C08A207220830
:1004F000FC00230884007C08831380000130A302E1
:1005000079087804031D3F2A0130FC007C08A3070A
:10051000080083160313A5001A30A200F830A100CA
:10052000A10B902AA20B902A000083160313250822
:100530000F39A1002108A3002508F039A1002108E6
:10054000A400831203130515831603132408A100C6
:1005500004300310A10CFF3E031DA92A21088A11B3
:1005600057268A110D3083160313A200FB30A10019
:10057000A10BB82AA20BB82ABD2A831203130714B1
:100580000D3083160313A200FB30A100A10BC62A75
:10059000A20BC62ACB2A8312031307108316031358
:1005A00023088A1157268A118312031307140D306A
:1005B00083160313A200FB30A100A10BDD2AA20BBE
:1005C000DD2AE22A831203130710080083120313A3
:1005D000A101F81FF22AF709F809F70A0319F80A26
:1005E000A101A10AFA1FFD2AF909FA09F90A03195A
:1005F000FA0A0130FB007B08A106A201A3017808DA
:1006000077040319342BA001A00AF81B132B013027
:100610000310F70DF80DFF3E031D082B0130FB0002
:100620007B08A007052B01300310A20DA30DFF3E90
:10063000031D142B78087A02031D202B77087902FA
:10064000031C292B7708F9027808031CFA03FA0225
:10065000221401300310F80CF70CFF3E031D2A2B67
:100660000130A002031D132B210803193C2BA20902
:10067000A309A20A0319A30A2308F801F80722080C
:10068000F701F70708008C1E512B181D4A2B9813F1
:100690009817862B8A15A6278A118A158E278A1104
:1006A000862B0C18862B8C1C6F2B8C100130CD07E1
:1006B0000318CE0A0030CE0750304D064E04031DFD
:1006C000862BCD01CE010130C7070318C80A0030C0
:1006D000C807043087068A1166258A11862B0B1CF1
:1006E000862B051C852B8A1163278A1106308312FD
:1006F0000313C2001330C100B130C000C00B7E2B09
:10070000C10B7E2BC20B7E2B852B0B108312031388
:100710004608FF0045088A0044088400430E830011
:10072000FE0E7E0E090083160313A601A31F9F2B46
:10073000A209A309A20A0319A30AA601A60AA11FD6
:10074000A62BA009A109A00A0319A10A21082004C7
:100750000319D32BA501A50AA11BBA2B0130031045
:10076000A00DA10DFF3E031DAF2B0130A4002408F6
:10077000A507AC2B21082302031DC02B2008220251
:10078000031CC82B2008A2022108031CA303A302F8
:1007900001300310A10CA00CFF3E031DC92B01303A
:1007A000A502031DBA2B26080319DB2BA209A309F6
:1007B000A20A0319A30A2308A101A1072208A00184
:1007C000A0070800F5001A30F200F830F100F10B34
:1007D000E72BF20BE72B000075080F39F1007108C9
:1007E000F3007508F039F1007108F4008312031367
:1007F00005157408F10004300310F10CFF3E031DD1
:10080000FC2B71088A15E6278A110D30F200FB30A7
:10081000F100F10B092CF20B092C0E2C831203139F
:1008200007140D30F200FB30F100F10B152CF20B28
:10083000152C1A2C83120313071073088A15E62748
:100840008A118312031307140D30F200FB30F100FC
:10085000F10B282CF20B282C2D2C831203130710DC
:100860000800F601F31F3B2CF209F309F20A031901
:10087000F30AF601F60AF11F422CF009F109F00A19
:100880000319F10A7108700403196F2CF501F50AB8
:10089000F11B562C01300310F00DF10DFF3E031D2E
:1008A0004B2C0130F4007408F507482C71087302D2
:1008B000031D5C2C70087202031C642C7008F20289
:1008C0007108031CF303F30201300310F10CF00C68
:1008D000FF3E031D652C0130F502031D562C7608E2
:1008E0000319772CF209F309F20A0319F30A7308C2
:1008F000F101F1077208F001F007080083160313F5
:10090000A601A701210820040319B72CA501A50AF7
:10091000A11B962C01300310A00DA10DFF3E031D5D
:100920008B2C0130A4002408A507882C013003106B
:10093000A60DA70DFF3E031D972C21082302031DC2
:10094000A32C20082202031CAC2C2008A2022108A0
:10095000031CA303A302261401300310A10CA00C56
:10096000FF3E031DAD2C0130A502031D962C270868
:10097000A101A1072608A001A0070800F501F601C2
:10098000710870040319F52CF701F70AF11BD42C38
:1009900001300310F00DF10DFF3E031DC92C013095
:1009A000F4007408F707C62C01300310F50DF60D9E
:1009B000FF3E031DD52C71087302031DE12C700846
:1009C0007202031CEA2C7008F2027108031CF30384
:1009D000F302751401300310F10CF00CFF3E031DFF
:1009E000EB2C0130F702031DD42C7608F101F1073E
:1009F0007508F001F007080083160313210820048E
:100A000003192B2DA501A50AA11B122D01300310DE
:100A1000A00DA10DFF3E031D072D0130A4002408E9
:100A2000A507042D21082302031D182D20082202EA
:100A3000031C202D2008A2022108031CA303A302EB
:100A400001300310A10CA00CFF3E031D212D01302D
:100A5000A502031D122D2308A101A1072208A00150
:100A6000A00708007108700403195F2DF501F50A4D
:100A7000F11B462D01300310F00DF10DFF3E031D5B
:100A80003B2D0130F4007408F507382D710873020E
:100A9000031D4C2D70087202031C542D7008F202C5
:100AA0007108031CF303F30201300310F10CF00C86
:100AB000FF3E031D552D0130F502031D462D730821
:100AC000F101F1077208F001F00708008316031323
:100AD000510A8400013083178007840A0318800AB2
:100AE000510A8400000883120313B300840A00082B
:100AF000B400B309B409B30A0319B40A49083307A7
:100B0000BE004A0803184A0A3407BF003F08A5017F
:100B1000A5073E08A401A40735308A1130208A11A8
:100B2000F40100308A11B1268A1135308A11BE27AE
:100B3000080083160313C3000130B1003108A00080
:100B4000B3308A1182278A11831603134308B10038
:100B5000B2013108A8003208A9000A30AA0000300A
:100B6000AB00C4308A1199218A11C4308316031353
:100B7000B1003108A000B3308A11D9268A1183163A
:100B80000313A40101308A1185268A11B3308A111A
:100B9000232708008312031305111A308316031349
:100BA000A500F830A400A40BD32DA50BD32D000075
:100BB00002308A11A0278A1102308A11A0278A11D7
:100BC0000C308A11A0278A1100308A11A0278A11BF
:100BD0000F308A11A0278A111A3083160313A5003B
:100BE000F830A400A40BF22DA50BF22D00008A15FD
:100BF0009E27080083120313B8000130A4002408C4
:100C0000F00026308A11DB278A118312031338087B
:100C1000A400A5012408F8002508F9000A30FA000C
:100C20000030FB0036308A1111228A1136308312CF
:100C30000313A4002408F00026308A11FF268A112D
:100C4000F40101308A11B1268A1126308A11BE279B
:100C500008008B15013083160313850016148601D6
:100C60008701831203138501860187018A15962760
:100C70008A118A1584278A118A1587278A118A156D
:100C8000B0278A118A1144278A110630831603136C
:100C9000A8001330A700B130A600A60B4D2EA70B5D
:100CA0004D2EA80B4D2E542E8A11CA2508008316EE
:100CB0000313A000201C602E831203138715632EDC
:100CC00083120313871183160313A01C6B2E831248
:100CD000031306166E2E83120313061283160313D4
:100CE000201D762E831203130717792E8312031308
:100CF000071383160313A01D812E831203130617F7
:100D00000800831203130613080083160313A900B7
:100D10002408A50004300310A50CFF3E031D8B2EF4
:100D200003302505A6002908A70001300310A70DF0
:100D3000FF3E031D962E0310270D26040838A80039
:100D40002808AA0024080F39A5002508AB002A08A6
:100D50008A11A0278A11831603132B088A11A02752
:100D60000800F9007408F50004300310F50CFF3E8C
:100D7000031DB52E03307505F6007908F700013024
:100D80000310F70DFF3E031DC02E0310770D7604F0
:100D90000838F8007808FA0074080F39F50075086B
:100DA000FB007A088A15CE278A117B088A15CE2780
:100DB000080083160313A2002208A1002108A30043
:100DC00023088400831380080319F32E0130A10047
:100DD0002108A307E02E0130A1002108A30701305C
:100DE000A1002108A007200884000008A100230812
:100DF000840021088000800803190800EB2EF2000F
:100E00007208F1007108F3007308840083138008EE
:100E10000319172F0130F1007108F307042F013077
:100E2000F1007108F3070130F1007108F007700854
:100E300084000008F10073088400710880008008B5
:100E4000031908000F2F83160313A900A701A80197
:100E500027082907A60026088400831380080319A1
:100E6000080027082907A600260884008313000825
:100E70008A1189228A11013083160313A7070318E8
:100E8000A80A0030A807282F831603138C1698127F
:100E90000C3099009A01831203179E019F0183165B
:100EA000031386168613181318128312031399015D
:100EB0008316031318119B111B109816831203132A
:100EC000181698170800831603135108033E840070
:100ED00083170008FD007D08D10051088400000838
:100EE0008A11FA258A11831203135008013A031D4F
:100EF000080083160313510A840083178001840AB3
:100F00008001080083160313A2002208A100210813
:100F1000A300200884008A1500208A11A10023085C
:100F20008400210883138000800803190800013021
:100F3000A1002108A3070130A1002108A007892FE3
:100F400083160313A30083120313051183160313DF
:100F500023088A1157268A118312031307140B30B2
:100F600083160313A2006230A100A10BB52FA20BC0
:100F7000B52F00008312031307100800F700F801D3
:100F8000F90178087707F600760884008313800853
:100F90000319080078087707F600760884008313A1
:100FA00000088A11E2238A110130F8070318F90AB0
:100FB0000030F907C12FF2007208F1007108F30048
:100FC000700884008A1500208A11F10073088400DB
:100FD0007108831380008008031908000130F100B4
:100FE0007108F3070130F1007108F007E02F640089
:0E0FF0008001840A0406031900340406F82F59
:1010000008308A000408840A820700344A346F34A6
:0C101000753465347534723420340034BB
:101F08008B170B17080083160313811281110730F2
:101F180081040800F000831203130C1E8F2F700831
:101F280099000800831603130F1470308F040F19DB
:101F380008009B2F00308A11A0278A1501308A11CA
:101F4800A027080083120313981CAC2F1812181628
:101F58008C1EAC2F1A0808008312031312150330C5
:101F6800920412088739483892007D30831603138B
:101F780092008C1408008A1129268A1583160313E7
:101F8800C6018430C7000330C80002308A110C2112
:101F98008A15CD2FF30083120313051173088A15D0
:101FA800E6278A158312031307140B30F2006230F8
:101FB800F100F10BDD2FF20BDD2F0000831203136C
:101FC80007100800F000701CED2F8312031387150B
:101FD800F02F831203138711F01CF42F0616F52F28
:101FE8000612701DF92F0717FA2F0713F01DFE2F81
:081FF80006170800061308009B
:02400E00F5FFBC
:00000001FF
