:040000008A11112828
:10000800FE00030EF1000408F2000A08F300831250
:1000180003137F08F4008A1123298A111328F70192
:10002800F80183018A11642800308A000408840AD0
:1000380082070034003480343F34723431343F3422
:10004800FE3475343E34583463343D3495341D34AD
:100058003C34C534AE343A347934213439349434A8
:10006800803437349334A734353456341534343423
:10007800003400340034003480343F34F034FF342A
:10008800BE34E234A9343E3483347634BE34AE34DC
:100098002B343E343C34C334BD34D23413343D3471
:1000A8007834D334BB3465346E34643420346F34DC
:1000B800663420346C3469346E3465340A34003460
:1000C8008A113F218A118A11E4208A1183160313A9
:1000D80087018312031387013A30AA002A08F50022
:1000E8002F088A1105218A11013083120313AD00EC
:1000F8000030AE00063083120313AC001330AB009F
:10010800B130AA00AA0B8628AB0B8628AC0B862830
:100118008D28831203132F088A1194208A117E28B0
:1001280083120313A700A801A901A801A9012708A0
:100138008A11BC208A117608831203132902031D31
:10014800A728750828020318080028082707A6000A
:1001580026088400831300088A1155218A1101306A
:1001680083120313A8070318A90A0030A9079B28BC
:1001780083120313A4002408A0002008A500250862
:100188008400831380080319CE280130A0002008BA
:10019800A507C3282408A0000030A100A009A109D0
:1001A800A00A0319A10A2508A2000030A30020080C
:1001B8002207F50021080318210A2307F600080082
:1001C8008B170B17831603138C1698120C30990093
:1001D8009A01831203179E019F0183160313861643
:1001E8008613181318128312031399018316031325
:1001F80018119B111B1098168312031318169817C1
:10020800080083120313A0002008F6007608A10056
:10021800750884008A1118208A11F60021088400C4
:100228007608831380008008031908000130F6005F
:100238007608A1070130F6007608F5070C298C1E10
:100248003229FF308700981C2C29181218163229D9
:100258008A114B218A118A115D218A11740883122F
:100268000313FF0073088A0072088400710E83006C
:10027800FE0E7E0E0900831603130F1470308F04D0
:1002880081128111073081040F190800482983124F
:100298000313981C5129181218168C1E51291A0874
:1002A8000800F500831203130C1E562975089900DF
:1002B8000800F000831203130C1E5E2970089900D1
:0202C80008002C
:02400E00F5FFBC
:00000001FF
