:100000008A11112801340134FE00030E83120313F8
:10001000C0000408C1000A08C2007F08C3008A119A
:10002000832A8A11132883134C30840054308A1198
:10003000F8278A1183160313D80183172030840010
:1000400048308A11F8278A118A1102208A11D600B5
:100050008A110320D70083018A11352E83120313DE
:10006000B2003C30F0000030F1002508F301F30746
:100070002408F201F2078A11F6238A11710883120B
:100080000313A701A7077008A601A6073C30F700D5
:100090000030F8002508F301F3072408F201F20705
:1000A0001030F0000E30F1008A11F6238A11710829
:1000B000FA01FA077008F901F9078A11F8228A1182
:1000C000780883120313A901A9077708A801A807D4
:1000D0001030F7000E30F8002508FA01FA0724085E
:1000E000F901F9078A11F8228A117808831203139B
:1000F000AB01AB077708AA01AA072708F901F9079E
:100100002608F801F8070A30FA000030FB002C300E
:100110008A110B228A1183120313AD08031D98283C
:100120002C08FD007D08AD003030FD007D08AC00DE
:100130002908F901F9072808F801F8070A30FA0038
:100140000030FB002E308A110B228A118312031318
:10015000AF08031DB3282E08FD007D08AF00303026
:10016000FD007D08AE002B08F901F9072A08F80107
:10017000F8070A30FA000030FB0030308A110B22F9
:100180008A1183120313B108031DCE283008FD0025
:100190007D08B1003030FD007D08B0003008FD0062
:1001A000320884007D08831380003108FD00320A84
:1001B00084007D0880003A30FD003208023E840051
:1001C0007D0880002E08FD003208033E84007D0873
:1001D00080002F08FD003208043E84007D08800066
:1001E0003A30FD003208053E84007D0880002C086E
:1001F000FD003208063E84007D0880002D08FD00C9
:100200003208073E84007D0880003208083E8400E2
:100210008001080083160313CF00D001D1015108DB
:10022000803ACA0080304A02031D18294F08500244
:1002300003187429831603135008CA0001300310F1
:10024000CA0DFF3E031D1F2903104A0D013E203E2B
:10025000840083178001840A80015008CA00500876
:10026000CB0001300310CB0DFF3E031D32290310DC
:100270004B0D203E84004A0880004F08CA00CB0185
:100280004A08A0004B08A1005008013EA2005108F6
:100290000318013E003EA3008A11A7238A1183168A
:1002A00003132008CC0001300310CC0DFF3E031DCA
:1002B000542903104C0D203ECD005008CE000130D3
:1002C0000310CE0DFF3E031D602903104E0D033EAB
:1002D000203E84004D08831780000130D0070318AA
:1002E000D10A0030D1070F29203083160313CA002A
:1002F0004A08D80058088400831700088A11D525B9
:10030000831603134708CA004A08D7004908831216
:100310000313CF01CF078316031348088312031377
:10032000CE01CE07080083160313B0002908AE01E2
:10033000AE072808AD01AD072B08A101A1072A08C7
:10034000A001A0072E08A301A3072D08A201A20760
:100350008A1189248A11831603132108AE01AE077E
:100360002008AD01AD070130AC002C08B0072E0805
:100370002D04031D9C293008840083138001013063
:10038000B0022B08A101A1072A08A001A007290893
:10039000A301A3072808A201A2078A1107258A1131
:1003A000831603132008AC002C08AF002B08A10112
:1003B000A1072A08A001A0072908A301A30728086C
:1003C000A201A2078A1189248A1183160313210826
:1003D000A901A9072008A801A8070A302F02031CB9
:1003E000F5290730AC002C08AF073030AC002C08E2
:1003F000AF072F08AC00300884002C08831380005E
:100400000130B00229082804031DC1290130AC00C5
:100410002C08B007080083120313A0007908A2017A
:10042000A2077808A101A1077B08F101F1077A086A
:10043000F001F0072208F301F3072108F201F207A7
:100440008A11C9248A11710883120313A201A20719
:100450007008A101A1070130FC007C08A007220858
:100460002104031D142A2008840083138001013015
:10047000A0027B08F101F1077A08F001F007790882
:10048000F301F3077808F201F2078A113D258A117A
:100490007008FC007C0883120313A3007B08F101A1
:1004A000F1077A08F001F0077908F301F3077808FB
:1004B000F201F2078A11C9248A117108F901F907BA
:1004C0007008F801F8070A30831203132302031C93
:1004D0006D2A0730FC007C08A3073030FC007C0844
:1004E000A3072308FC00200884007C0883138000F5
:1004F0000130A00279087804031D392A0130FC007C
:100500007C08A00708008C1E942A181D8A2A9813BC
:100510009817EB2A8A15C9268A118A15B1268A11DD
:100520008A15FD268A11EB2A0C1CD02A0C10E83003
:10053000F0000330F1008A15E0268A1101308312A1
:100540000313D0070318D10A0030D1070330510636
:10055000031DAC2AE8305006031DEB2AD001D1015F
:100560000130CC070318CD0A0030CD0704308706D0
:100570004D08F901F9074C08F801F8070A30FA00AC
:100580000030FB0044308A110B228A11F401003044
:100590008A1138278A1144308A11AC278A11EB2A34
:1005A0008C1CEB2A8C100130D2070318D30A0030C0
:1005B000D307643052065304031DEB2AD201D30142
:1005C0000130CC070318CD0A0030CD070430870670
:1005D0008A1171258A11831203134308FF00420810
:1005E0008A0041088400400E8300FE0E7E0E090042
:1005F00083120313A101F81F042BF709F809F70A66
:100600000319F80AA101A10AFA1F0F2BF909FA0927
:10061000F90A0319FA0A0130FB007B08A106A201BE
:10062000A301780877040319462BA001A00AF81B40
:10063000252B01300310F70DF80DFF3E031D1A2B7B
:100640000130FB007B08A007172B01300310A20D1F
:10065000A30DFF3E031D262B78087A02031D322BC3
:1006600077087902031C3B2B7708F9027808031CF2
:10067000FA03FA02221401300310F80CF70CFF3EC3
:10068000031D3C2B0130A002031D252B210803195B
:100690004E2BA209A309A20A0319A30A2308F801F1
:1006A000F8072208F701F707080083160313A500CF
:1006B00025080F39A1002108A3002508F039A10061
:1006C0002108A400831203130515831603132408BD
:1006D000A10004300310A10CFF3E031D6A2B21086A
:1006E0008A1163268A110D3083160313A200FB3092
:1006F000A100A10B792BA20B792B7E2B8312031364
:1007000007140D3083160313A200FB30A100A10BC8
:10071000872BA20B872B8C2B8312031307108316B6
:10072000031323088A1163268A1183120313071403
:100730000D3083160313A200FB30A100A10B9E2BEA
:10074000A20B9E2BA32B8312031307100800831602
:100750000313A601A31FB32BA209A309A20A03191D
:10076000A30AA601A60AA11FBA2BA009A109A00AE3
:100770000319A10A210820040319E72BA501A50AE2
:10078000A11BCE2B01300310A00DA10DFF3E031DB8
:10079000C32B0130A4002408A507C02B2108230285
:1007A000031DD42B20082202031CDC2B2008A202EC
:1007B0002108031CA303A30201300310A10CA00C09
:1007C000FF3E031DDD2B0130A502031DCE2B2608A5
:1007D0000319EF2BA209A309A20A0319A30A2308EC
:1007E000A101A1072208A001A0070800F601F31F3C
:1007F000002CF209F309F20A0319F30AF601F60ACA
:10080000F11F072CF009F109F00A0319F10A710828
:1008100070040319342CF501F50AF11B1B2C01306F
:100820000310F00DF10DFF3E031D102C0130F400FC
:100830007408F5070D2C71087302031D212C700834
:100840007202031C292C7008F2027108031CF303C6
:10085000F30201300310F10CF00CFF3E031D2A2CB3
:100860000130F502031D1B2C760803193C2CF209FC
:10087000F309F20A0319F30A7308F101F107720888
:10088000F001F0070800F50075080F39F100710854
:10089000F3007508F039F1007108F40083120313B6
:1008A00005157408F10004300310F10CFF3E031D20
:1008B000542C71088A1529278A110D30F200FB305B
:1008C000F100F10B612CF20B612C662C83120313E7
:1008D00007140D30F200FB30F100F10B6D2CF20B20
:1008E0006D2C722C83120313071073088A152927A5
:1008F0008A118312031307140D30F200FB30F1004C
:10090000F10B802CF20B802C852C83120313071023
:10091000080083160313A501A6012108200403196A
:10092000C22CA701A70AA11BA12C01300310A00D06
:10093000A10DFF3E031D962C0130A4002408A7073B
:10094000932C01300310A50DA60DFF3E031DA22C14
:1009500021082302031DAE2C20082202031CB72C01
:100960002008A2022108031CA303A30225140130BE
:100970000310A10CA00CFF3E031DB82C0130A702F0
:10098000031DA12C2608A101A1072508A001A0078D
:100990000800F501F601710870040319002DF70134
:1009A000F70AF11BDF2C01300310F00DF10DFF3EB3
:1009B000031DD42C0130F4007408F707D12C01304A
:1009C0000310F50DF60DFF3E031DE02C71087302B8
:1009D000031DEC2C70087202031CF52C7008F20247
:1009E0007108031CF303F302751401300310F10CBA
:1009F000F00CFF3E031DF62C0130F702031DDF2C27
:100A00007608F101F1077508F001F0070800831678
:100A10000313210820040319362DA501A50AA11BE3
:100A20001D2D01300310A00DA10DFF3E031D122D41
:100A30000130A4002408A5070F2D21082302031D5F
:100A4000232D20082202031C2B2D2008A20221089E
:100A5000031CA303A30201300310A10CA00CFF3E52
:100A6000031D2C2D0130A502031D1D2D2308A101FE
:100A7000A1072208A001A00708007108700403194B
:100A80006A2DF501F50AF11B512D01300310F00D0F
:100A9000F10DFF3E031D462D0130F4007408F507EB
:100AA000432D71087302031D572D70087202031C39
:100AB0005F2D7008F2027108031CF303F30201308A
:100AC0000310F10CF00CFF3E031D602D0130F50208
:100AD000031D512D7308F101F1077208F001F007B1
:100AE000080083160313580A840001308317800717
:100AF000840A0318800A580A84000008831203132A
:100B0000B300840A0008B400B309B409B30A031996
:100B1000B40A4E083307BE004F0803184F0A3407C3
:100B2000BF003F08A501A5073E08A401A407353072
:100B30008A112E208A11F40100308A1138278A1177
:100B400035308A11AC270800831203138512051172
:100B50001A3083160313A500F830A400A40BAE2DA1
:100B6000A50BAE2D000002308A155F278A110230D6
:100B70008A155F278A110C308A155F278A11003089
:100B80008A155F278A110F308A155F278A111A305C
:100B900083160313A500F830A400A40BCD2DA50BDC
:100BA000CD2D00008A15C126080083160313C4004A
:100BB0000E30B2003208A000B4308A157D278A11A9
:100BC000831603134408B200B3013208A8003308A7
:100BD000A9000A30AA000030AB00C5308A11932169
:100BE0008A11C53083160313B2003208A000B43056
:100BF0008A1160278A1183160313A40101308A1118
:100C000091268A11B4308A118627080083120313B3
:100C1000B8000E30A4002408F00026308A154327BF
:100C20008A11831203133808A400A5012408F800D0
:100C30002508F9000A30FA000030FB0036308A112E
:100C40000B228A11363083120313A4002408F0000B
:100C500026308A15DC278A11F40101308A113827E1
:100C60008A1126308A11AC2708008A11BD268A1104
:100C700083160313C7015630C8000E30C900033075
:100C80008A110A218A11013083160313D2005208F7
:100C9000A00055088A157D278A118316031355086D
:100CA0008A11E8268A11063083160313D400133004
:100CB000D300B130D200D20B5B2ED30B5B2ED40B02
:100CC0005B2E622E4D2E83160313A000201C6C2E6B
:100CD0008312031387156F2E831203138711831654
:100CE0000313A01C772E8312031306167A2E831289
:100CF0000313061283160313201D822E831203137F
:100D00000717852E83120313071383160313A01DE1
:100D10008D2E831203130617080083120313061384
:100D2000080083160313A9002408A500043003104B
:100D3000A50CFF3E031D972E03302505A6002908AC
:100D4000A70001300310A70DFF3E031DA22E0310C4
:100D5000270D26040838A8002808AA0024080F39FF
:100D6000A5002508AB002A088A155F278A1183167B
:100D700003132B088A155F270800831603138501C8
:100D800086018701831203138501860187018A1575
:100D9000B9268A118A159B268A118A15AA268A11D4
:100DA0008A15EE268A118A159B278A11063083162A
:100DB0000313A8001330A700B130A600A60BDE2E47
:100DC000A70BDE2EA80BDE2EE52E8A11A425080027
:100DD00083160313AB00A901AA01A901AA012B08DC
:100DE0008A1110278A118316031321082A02031D72
:100DF000FB2E200829020318080029082B07A80049
:100E000028088400831300088A15D3268A1101302C
:100E100083160313A9070318AA0A0030AA07EF2EA6
:100E200083160313A6002608A2002208A70027089D
:100E30008400831380080319222F0130A2002208A6
:100E4000A707172F2608A2000030A300A209A309B4
:100E5000A20A0319A30A2708A4000030A50022084B
:100E60002407A00023080318230A2507A10008006F
:100E7000F9007408F50004300310F50CFF3E031D63
:100E80003C2F03307505F6007908F7000130031098
:100E9000F70DFF3E031D472F0310770D760408382A
:100EA000F8007808FA0074080F39F5007508FB009F
:100EB0007A088A1511278A117B088A1511270800DC
:100EC00083160313A2002208A1002108A30023080F
:100ED00084008313800803197A2F0130A1002108B0
:100EE000A307672F0130A1002108A3070130A1004B
:100EF0002108A007200884000008A100230884001E
:100F000021088000800803190800722F831603133C
:100F1000B100AF01B0012F083107AE002E088400E8
:100F2000831380080319A72F2F083107AE002E085E
:100F30008400831300088A1155238A110130831617
:100F40000313AF070318B00A0030B0078B2FAC01B2
:100F500031088A15A326080083120313A100A201F9
:100F6000A30122082107A000200884008313800821
:100F70000319CD2F22082107A00020088400831325
:100F800000088A1143248A11013083120313A20737
:100F90000318A30A0030A307B12FFC0121088A150A
:100FA0009E260800F6007608F2007208F70077081F
:100FB0008400831380080319E22F0130F2007208C5
:100FC000F707D72F7608F2000030F300F209F30993
:100FD000F20A0319F30A7708F4000030F5007208EA
:100FE0007407F00073080318730A7507F10008000E
:100FF00064008001840A0406031900340406F92FF2
:1010000008308A000408840A8207003465346E348C
:10101000643420346F34663420346C3469346E3474
:1010200065340A3400344A346F34753465347534A9
:061030007234203400348C
:101D36008B170B170800FD007D088A15BA270800C7
:101D460083160313AD002D088A11E82608008316B2
:101D5600031381128111073081040800F0008312F9
:101D660003130C1EB22E7008990008008316031385
:101D76000F1470308F040F190800BE2E00308A151C
:101D86005F278A1501308A155F270800831203131F
:101D9600981CCF2E181218168C1ECF2E1A08080063
:101DA60083160313A00083120C1ED62E831603136C
:101DB600200883120313990008007009F2007109C4
:101DC600F300F20A0319F30A7208831203138E0052
:101DD60073088F0008008312031312150330920450
:101DE60012088739483892007D3083160313920013
:101DF6008C140800831603135808033E84008317C7
:101E0600000883120313B900390883160313D80098
:101E16005808840000088A1106260800F300831279
:101E26000313051173088A1529278A1583120313CC
:101E360007140B30F2006230F100F10B202FF20B89
:101E4600202F00008312031307100800F000701CF7
:101E5600302F831203138715332F83120313871131
:101E6600F01C372F0616382F0612701D3C2F071749
:101E76003D2F0713F01D412F061708000613080013
:101E8600F2007208F1007108F300700884008A15E8
:101E960000208A15F10073088400710883138000FE
:101EA6008008031908000130F1007108F3070130BA
:101EB600F1007108F007482F83160313A30083125D
:101EC600031305118316031323088A1163268A1543
:101ED6008312031307140B3083160313A200623018
:101EE600A100A10B742FA20B742F00008312031301
:101EF6000710080083160313A3002308A100210876
:101F0600A200200884008A1500208A15A100220854
:101F1600840021088313800080080319080001301B
:101F2600A1002108A2070130A1002108A007842FE3
:101F3600831603138C1698120C3099009A0183129B
:101F460003179E019F018316031386168613181323
:101F560018128312031399018316031318119B1188
:101F66001B10981683120313181698170800F90009
:101F7600FA01FB01FA01FB0179088A11D2278A15B9
:101F860071087B02031DC92F70087A020318080026
:101F96007A087907F80078088400831300088A1500
:101FA600B1268A150130FA070318FB0A0030FB0731
:101FB600BF2FF2007208F1007108F3007308840065
:101FC600831380080319F42F0130F1007108F30719
:101FD600E12F0130F1007108F3070130F1007108BB
:101FE600F007700884000008F10073088400710887
:0A1FF6008000800803190800EC2F9A
:02400E00F5FFBC
:00000001FF
