:040000008A11112828
:10000800FE00030EF1000408F2000A08F300831250
:1000180003137F08F4008A11472A8A111328F7016D
:10002800F80183018A1118288A1179228A118A1104
:10003800CE218A11831603138701831203138701C4
:100048003A30A8002808F5002E088A110F228A11D4
:10005800013083120313AB000030AC008316031386
:1000680085018601870183120313850186018701B3
:100078001530AA004B30A900D130A800A80B42289F
:10008800A90B4228AA0B422800008A119A218A113A
:10009800493083120313A8002808AD00AF010830C7
:1000A8008A1161228A11831203132F088A1161228F
:1000B8008A1183120313B001B10108308A11612239
:1000C8008A11831203132F088A1161228A111A30A8
:1000D80083120313A900F830A800A80B7128A90BF4
:1000E8007128000047308A11EF218A1106308312E7
:1000F8000313AA001330A900B130A800A80B822866
:10010800A90B8228AA0B8228892883120313B0011D
:10011800B1013108803AFF0080307F02031D962824
:100128000F3030020318BD288A118F228A1104303B
:1001380083120313AA000C30A9003530A800A80BBD
:10014800A328A90BA328AA0BA328AA280130831245
:100158000313B0070318B10A0030B1073108803A19
:10016800FF0080307F02031DBB280F303002031CC4
:0A01780098288A1197228A11612845
:1002000001308A000408840A8207003400348034F4
:100210003F34723431343F34FE3475343E34583414
:1002200063343D3495341D343C34C534AE343A34F3
:100230007934213439349434803437349334A734C6
:10024000353456341534343400340034003400343A
:1002500080343F34F034FF34BE34E234A9343E34C9
:1002600083347634BE34AE342B343E343C34C33421
:10027000BD34D23413343D347834D334BB34653494
:100280006E34643420346F34663420346C34693412
:100290006E3465340A340034733461346C3475342C
:1002A0007434003483120313A40024080F39A0000F
:1002B0002008A2002408F039A0002008A30005159A
:1002C0002308A00004300310A00CFF3E031D632987
:1002D00020088A112D228A110D3083120313A100E8
:1002E000FB30A000A00B7229A10B72297729831281
:1002F000031307140D30A100FB30A000A00B7E29D2
:10030000A10B7E29832983120313071022088A1167
:100310002D228A118312031307140D30A100FB3024
:10032000A000A00B9129A10B9129962983120313F8
:100330000710080083120313851205111A30A30059
:10034000F830A200A20BA229A30BA22900000230C0
:100350008A1161228A1102308A1161228A110C30BD
:100360008A1161228A1100308A1161228A110F30AC
:100370008A1161228A111A3083120313A300F83004
:10038000A200A20BC129A30BC129000000308A11D1
:1003900061228A1101308A11612208008B170B1724
:1003A000831603138C1698120C3099009A0183124D
:1003B00003179E019F0183160313861686131813D5
:1003C00018128312031399018316031318119B113A
:1003D0001B1098168312031318169817080083121F
:1003E0000313A500A601A7012608250784008A118A
:1003F00000218A1100380319080026082507840007
:100400008A1100218A118A1152218A110130831226
:100410000313A6070318A70A0030A707F4298312BD
:100420000313A0002008F6007608A10075088400D8
:100430008A1100218A11F6002108840076088313AE
:1004400080008008031908000130F6007608A10733
:100450000130F6007608F507162AF500751C342AD7
:10046000831203138715372A831203138711F51C90
:100470003B2A06163C2A0612751D402A0717412AF8
:100480000713F51D452A06170800061308008C1EE1
:10049000542A981C4E2A18121816542A8A1185229A
:1004A0008A118A119F228A11740883120313FF0094
:1004B00073088A0072088400710E8300FE0E7E0E9F
:1004C0000900F60083120313051176088A112D2204
:1004D0008A118312031307140B30A1006230A000AD
:1004E000A00B702AA10B702A0000831203130710BF
:1004F0000800831603130F1470308F0481128111CA
:10050000073081040F190800822A83120313981CF4
:100510008B2A181218168C1E8B2A1A080800013014
:100520008A1161228A110C308A1161220800003080
:100530008A1161228A1101308A1161220800F000BB
:0E054000831203130C1EA02A700899000800F5
:02400E00F5FFBC
:00000001FF
