:040000008A11112828
:10000800FE00030EF0000408F1000A08F200831253
:1000180003137F08F3008A11D0288A11132883015B
:100028008A11652883120313A101F71F2228F609F4
:10003800F709F60A0319F70AA101A10AF51F2928E9
:10004800F409F509F40A0319F50A75087404031983
:100058005628A001A00AF51B3D2801300310F40D15
:10006800F50DFF3E031D32280130F8007808A0077F
:100078002F2875087702031D432874087602031C8D
:100088004B287408F6027508031CF703F7020130C1
:100098000310F50CF40CFF3E031D4C280130A002A0
:1000A800031D3D28210803195E28F609F709F60AF9
:1000B8000319F70A7708F501F5077608F401F4073C
:1000C80008008A11C2208A118A11A5208A11831674
:1000D800031387018312031387014130A20022080A
:1000E800A5000130A6000030A700033083120313D7
:1000F800A4008A30A3005630A200A20B8128A30BCB
:100108008128A40B812888288312031326088700D6
:100118000F30F4000030F5000310260DF600270D0F
:10012800F7008A1116208A11750883120313A70194
:10013800A7077408A601A60725088A11DB208A11DB
:100148007928831603139812A13099008312031794
:100158009E019F018316031386168613181318121F
:100168008312031399018316031318119B111B1093
:10017800981683120313181698170800831603138A
:100188000F140F088F3960388F00811281110730E2
:1001980081040F190800CD287308FF0072088A002F
:1001A80071088400700E8300FE0E7E0E0900F400B4
:0E01B800831203130C1EDC2874089900080043
:02400E00F5FFBC
:00000001FF
